:100000000EC01DC01CC01BC022C019C018C017C024
:1000100016C015C05CC013C012C011C010C011249E
:100020001FBECFE5D1E0DEBFCDBF20E0A0E6B0E04F
:1000300001C01D92A836B207E1F7AFD0D8C0E0CF1B
:10004000F8949093630080936200789408951F92CF
:100050000F920FB60F9211248F939F93809160009F
:1000600090916100892B41F480916200909163002E
:10007000909367008093660080916600909167007E
:100080008F3F910569F064F08FEF8EBD809166001F
:10009000909167009A95909367008093660005C0E1
:1000A0008EBD109267001092660080916000909162
:1000B000610001968370992790936100809360009E
:1000C0009F918F910F900FBE0F901F9018951F92C8
:1000D0000F920FB60F9211248F939F93809164001B
:1000E0009091650080FF02C0C09A01C0C0988091C5
:1000F0006400909165009695879590936500809334
:1001000064008091640090916500892B11F413BE06
:1001100012BE9F918F910F900FBE0F901F90189558
:100120002091640030916500232BD1F4880F990B46
:1001300090936500809364008091640090916500C5
:100140008E7F90936500809364008091640090910D
:1001500065009260909365008093640082E083BFA5
:100160000895CF93DF93EC018991882341F0D8DF84
:100170008091640090916500892BD1F7F5CFDF91D4
:10018000CF91089582E287B986E886B90895B99A31
:10019000C19A80B7816580BF0895F4DFF8DFB89A0F
:1001A000C09A8AB58ABD8AB58ABD8AB58ABD8AB524
:1001B0008ABD83B783BF8AB582608ABD8AB58ABD8E
:1001C00083B783BF83B7826083BF83B783BF7894CD
:1001D00089B7846189BF8EEC89BD12BE369A369983
:1001E000FECF85B19DDF85B190E02ADFF7CFF8948F
:0201F000FFCF3F
:00000001FF
