:100000000EC015C014C013C012C012C010C00FC063
:100010000EC00DC00CC00BC00AC009C008C011241E
:100020001FBECFE5D1E0DEBFCDBF14D030C0E8CFDA
:100030001F920F920FB60F9211248F939F9398B334
:1000400081E0892788BB9F918F910F900FBE0F9001
:100050001F901895B89AC09A8AB58ABD8AB58ABD8C
:100060008AB58ABD8AB58ABD83B783BF8AB58ABD82
:100070008AB58ABD83B7846083BF83B783BF83B7E4
:1000800083BF789489B7826089BF12BEFFCFF8948E
:02009000FFCFA0
:00000001FF
