:100000001DC22CC22BC22AC20EC328C227C226C2BE
:1000100025C224C223C222C221C220C21FC2FFFFA6
:10002000FFFFFFFFFFFFFFFFFFFFFFFFFFFFFFFFE0
:10003000FFFFFFFFFFFFFFFFFFFFFFFF7F7F3F1F70
:100040001F1F0F0F0F0F0F0F0F0F0F0F0F0F0F0FA0
:100050000F1F1F3F3F3F7F7FFFFFFFFFFFFFFFFFA0
:10006000FFFFFFFFFFFFFFFFFFFFFFFFFFFFFFFFA0
:10007000FFFFFFFFFFFFFFFFFFFFFFFFFFFFFFFF90
:10008000FFFFFFFFFFFFFFFFFFFFFFFFFFFFFFFF80
:10009000FFFFFFFFFFFFFFFFFFFFFFFFFFFFFFFF70
:1000A000FFFFFFFFFFFFFFFFFFFFFFFFFFFFFFFF60
:1000B000FFFFFF7F3F1F0F07030301000010101811
:1000C000181C1C3CFEFFFFFFFFFFFF7F3F1F1F1E92
:1000D0001E1C1C1C3878F0F0E0C08103070F1F3F86
:1000E000FFFFFFFFFFFFFFFFFFFFFFFFFFFFFFFF20
:1000F000FFFFFFFFFFFFFFFFFFFFFFFFFFFFFFFF10
:10010000FFFFFFFFFFFFFFFFFFFFFFFFFFFFFFFFFF
:10011000FFFFFFFFFFFFFFFFFFFFFFFFFFFFFFFFEF
:10012000FFFFFFFFFFFFFFFFFFFFFFFFFF7F3F0F0F
:10013000030180E0F000000000E0F8FCFCFEFEFEA1
:10014000FCF8E000000107FF1F07010080E0F8FE57
:10015000FEFCFCF8F0C00001030FFFFFFCF0C00044
:1001600000030F7FFFFFFFFFFFFFFFFFFFFFFFFF0A
:10017000FFFFFFFFFFFFFFFFFFFFFFFFFFFFFFFF8F
:10018000FFFFFFFFFFFFFFFFFFFFFFFFFFFFFFFF7F
:10019000FFFFFFFFFFFFFFFFFFFFFFFFFFFFFFFF6F
:1001A000FFFFFFFFFFFFFFFFFFFF1F07010080E0D2
:1001B000F8FEFFFFFFFCF8F0E0C0C1C3C3838387F4
:1001C000878381C0C0F0F8FFE0C08000070F1F1FC9
:1001D0001F1F1F1F1F0F000000C0FFFFFFFFFFFEBC
:1001E000F8C00000011FFFFFFFFFFFFFFFFFFFFF41
:1001F000FFFFFFFFFFFFFFFFFFFFFFFFFFFFFFFF0F
:10020000FFFFFFFFFFFFFFFFFFFFFFFFFFFFFFFFFE
:10021000FFFFFFFFFFFFFFFFFFFFFFFFFFFFFFFFEE
:10022000FFFFFFFFFFFFFFFF3F00000000E0C1C135
:1002300083838707070F0F1F1F1F1F3F3F3F3F7F0E
:100240007F7F7F7F7FFFFFFFFFFFFFFFFEFEFEFE42
:10025000FEFEFEFEFEFEFEFFFFFF7F7F7F3F3F3F75
:100260001F1F000000001FFFFFFFFFFFFFFFFFFF3A
:10027000FFFFFFFFFFFFFFFFFFFFFFFFFFFFFFFF8E
:10028000FFFFFFFFFFFFFFFFFFFFFFFFFFFFFFFF7E
:10029000FFFFFFFFFFFFFFFFFFFFFFFFFFFFFFFF6E
:1002A000FFFFFFFFFFFFFFFFE0000000073FFFFF32
:1002B000FFFFFFFF3F02000000F0FCFCFCF8F8F835
:1002C000F808000000C0F0F0F0F0F0F0F0F0F010EE
:1002D00000000080F0F0F0F0F000000000F8F8FC02
:1002E0003C00000000F0FFFFFFFFFFFFFFFFFFFFEC
:1002F000FFFFFFFFFFFFFFFFFFFFFFFFFFFFFFFF0E
:10030000FFFFFFFFFFFFFFFFFFFFFFFFFFFFFFFFFD
:10031000FFFFFFFFFFFFFFFFFFFFFFFFFFFFFFFFED
:10032000FFFFFFFFFFFFFFFFFFFFFEF8F0E0C081D0
:10033000030707010000203C7F7F7FFFFFFFFF7F57
:1003400001000000F8FFFFFFFFFFFFFFFFFF3F007E
:10035000000000FFFFFFFF7F3F0000000007038059
:10036000C0E0F0FCFFFFFFFFFFFFFFFFFFFFFFFF0D
:10037000FFFFFFFFFFFFFFFFFFFFFFFFFFFFFFFF8D
:10038000FFFFFFFFFFFFFFFFFFFFFFFFFFFFFFFF7D
:10039000FFFFFFFFFFFFFFFFFFFFFFFFFFFFFFFF6D
:1003A000FFFFFFFFFFFFFFFFFFFFFFFFFFFFFFFF5D
:1003B000FFFEFCFCFCFCF8F8F8F0F0F0F0F0E0E0F8
:1003C000E0E0E0E0E1E1C1C1C3C3C3C3C3C3C0C057
:1003D000C0C0C1C1E1E0E0F0F0F8F8FCFEFEFFFFB4
:1003E000FFFFFFFFFFFFFFFFFFFFFFFFFFFFFFFF1D
:1003F000FFFFFFFFFFFFFFFFFFFFFFFFFFFFFFFF0D
:10040000FFFFFFFFFFFFFFFFFFFFFFFFFFFFFFFFFC
:10041000FFFFFFFFFFFFFFFFFFFFFFFFFFFFAE8DAF
:100420001440A1C8DA12A83FD580D922DB202000D1
:1004300022000721007F817FA6A4AF0011241FBEE8
:10044000CFE5D1E0DEBFCDBF20E0A0E6B0E001C047
:100450001D92A236B207E1F704D11AC1D1CDB89AE4
:10046000BA9AC29AC09A8FEF8FB98AE28DB980EF9B
:100470008EB90895C09AC29AC29BFECFC0988DE0F3
:100480008A95F1F70000C298C09A0895C098C29A60
:10049000B29BFECF8DE08A95F1F70000C09A8AE00A
:1004A0008A95F1F700C00895C2988EB98DE08A95BB
:1004B000F1F70000689AB29BFECF8AE08A95F1F7C7
:1004C00000C0689A769BF2CF8DE08A95F1F7000024
:1004D0008FB19FEF9FB908958FB980EFE5DFB8988E
:1004E0008EEFE2DFB89A0895CF93DF93D82FB898B4
:1004F00080EFDADFC82FB89ADFB98EEFD5DF8C2F07
:10050000DF91CF910895CF93C82FB4DF88E7E4DF60
:1005100080E0E2DF8C2FE0DFCF91B8CFCF93DF9385
:10052000A9DF88E7D9DFCEE1D4E080E8D5DFFE019E
:100530008491D2DF2196F4E0CB33DF07B1F7DF916E
:10054000CF91A4CFEF92FF920F931F93CF93DF939E
:1005500018161906C4F47B01EC018CDF88E7BCDFB8
:100560008701CE0DDF1D80E8B7DFF80181918F0193
:10057000B3DF0C171D07B9F7DF91CF911F910F91D2
:10058000FF90EF9083CFDF91CF911F910F91FF905C
:10059000EF900895CF93C82F6DDF88E79DDF80E44B
:1005A0009BDF8C2F99DFCF9171CFEF92FF920F934A
:1005B0001F93CF93DF937C018B015CDF88E78CDF97
:1005C000E801CE01801B910B8E159F052CF480EC69
:1005D00083DF899181DFF5CFDF91CF911F910F915B
:1005E000FF90EF9053CFEF92FF920F931F93CF9313
:1005F000DF938C017B013EDF88E76EDFC0E0D0E057
:10060000C017D1074CF480EC67DFF701EC0FFD1F3A
:10061000849162DF2196F4CFDF91CF911F910F91EA
:10062000FF90EF9033CF1F920F920FB60F921124CD
:100630008F939F9380916000909161008EBD9F91F8
:100640008F910F900FBE0F901F90189582E287B97F
:1006500084E886B90895B99AC19A80B7816580BF48
:100660000895F4DFF8DF789489B7846089BFF7DEF6
:1006700055DF6EE170E080E094E0B5DF369A3699A0
:10068000FECF85B190E09093610080936000F6CF3B
:04069000F894FFCF0C
:00000001FF
